{"abi":[{"type":"function","name":"ALERT_TAG","inputs":[],"outputs":[{"name":"","type":"string","internalType":"string"}],"stateMutability":"view"},{"type":"function","name":"THRESHOLD_WEI","inputs":[],"outputs":[{"name":"","type":"uint256","internalType":"uint256"}],"stateMutability":"view"},{"type":"function","name":"WATCHED","inputs":[],"outputs":[{"name":"","type":"address","internalType":"address"}],"stateMutability":"view"},{"type":"function","name":"collect","inputs":[],"outputs":[{"name":"","type":"bytes","internalType":"bytes"}],"stateMutability":"view"},{"type":"function","name":"shouldRespond","inputs":[{"name":"data","type":"bytes[]","internalType":"bytes[]"}],"outputs":[{"name":"","type":"bool","internalType":"bool"},{"name":"","type":"bytes","internalType":"bytes"}],"stateMutability":"pure"}],"bytecode":{"object":"0x6080604052348015600e575f5ffd5b506107be8061001c5f395ff3fe608060405234801561000f575f5ffd5b5060043610610055575f3560e01c806344e6e4ce14610059578063b96fc7ee1461008a578063e3315637146100a8578063e5225381146100c6578063edd0d193146100e4575b5f5ffd5b610073600480360381019061006e91906102f5565b610102565b6040516100819291906103ca565b60405180910390f35b610092610198565b60405161009f919061044a565b60405180910390f35b6100b06101d1565b6040516100bd9190610482565b60405180910390f35b6100ce6101dd565b6040516100db919061049b565b60405180910390f35b6100ec61026b565b6040516100f991906104fa565b60405180910390f35b5f60605f5f85855f81811061011a57610119610513565b5b905060200281019061012c919061054c565b8101906101399190610700565b915091506706f05b59d3b2000082101561017a57600181604051602001610160919061044a565b604051602081830303815290604052935093505050610191565b5f60405180602001604052805f8152509350935050505b9250929050565b6040518060400160405280600b81526020017f616e6e616173746163696100000000000000000000000000000000000000000081525081565b6706f05b59d3b2000081565b60605f73e52ca26d0db661791158549068483c379b20974073ffffffffffffffffffffffffffffffffffffffff16319050806040518060400160405280600b81526020017f616e6e616173746163696100000000000000000000000000000000000000000081525060405160200161025692919061075a565b60405160208183030381529060405291505090565b73e52ca26d0db661791158549068483c379b20974081565b5f604051905090565b5f5ffd5b5f5ffd5b5f5ffd5b5f5ffd5b5f5ffd5b5f5f83601f8401126102b5576102b4610294565b5b8235905067ffffffffffffffff8111156102d2576102d1610298565b5b6020830191508360208202830111156102ee576102ed61029c565b5b9250929050565b5f5f6020838503121561030b5761030a61028c565b5b5f83013567ffffffffffffffff81111561032857610327610290565b5b610334858286016102a0565b92509250509250929050565b5f8115159050919050565b61035481610340565b82525050565b5f81519050919050565b5f82825260208201905092915050565b8281835e5f83830152505050565b5f601f19601f8301169050919050565b5f61039c8261035a565b6103a68185610364565b93506103b6818560208601610374565b6103bf81610382565b840191505092915050565b5f6040820190506103dd5f83018561034b565b81810360208301526103ef8184610392565b90509392505050565b5f81519050919050565b5f82825260208201905092915050565b5f61041c826103f8565b6104268185610402565b9350610436818560208601610374565b61043f81610382565b840191505092915050565b5f6020820190508181035f8301526104628184610412565b905092915050565b5f819050919050565b61047c8161046a565b82525050565b5f6020820190506104955f830184610473565b92915050565b5f6020820190508181035f8301526104b38184610392565b905092915050565b5f73ffffffffffffffffffffffffffffffffffffffff82169050919050565b5f6104e4826104bb565b9050919050565b6104f4816104da565b82525050565b5f60208201905061050d5f8301846104eb565b92915050565b7f4e487b71000000000000000000000000000000000000000000000000000000005f52603260045260245ffd5b5f5ffd5b5f5ffd5b5f5ffd5b5f5f8335600160200384360303811261056857610567610540565b5b80840192508235915067ffffffffffffffff82111561058a57610589610544565b5b6020830192506001820236038313156105a6576105a5610548565b5b509250929050565b6105b78161046a565b81146105c1575f5ffd5b50565b5f813590506105d2816105ae565b92915050565b5f5ffd5b7f4e487b71000000000000000000000000000000000000000000000000000000005f52604160045260245ffd5b61061282610382565b810181811067ffffffffffffffff82111715610631576106306105dc565b5b80604052505050565b5f610643610283565b905061064f8282610609565b919050565b5f67ffffffffffffffff82111561066e5761066d6105dc565b5b61067782610382565b9050602081019050919050565b828183375f83830152505050565b5f6106a461069f84610654565b61063a565b9050828152602081018484840111156106c0576106bf6105d8565b5b6106cb848285610684565b509392505050565b5f82601f8301126106e7576106e6610294565b5b81356106f7848260208601610692565b91505092915050565b5f5f604083850312156107165761071561028c565b5b5f610723858286016105c4565b925050602083013567ffffffffffffffff81111561074457610743610290565b5b610750858286016106d3565b9150509250929050565b5f60408201905061076d5f830185610473565b818103602083015261077f8184610412565b9050939250505056fea264697066735822122032a08017f843f59b39fe99f1b3f773f8d150da11c72282fcc727ed69ca3d18f264736f6c634300081e0033","linkReferences":{}},"methodIdentifiers":{"ALERT_TAG()":"b96fc7ee","THRESHOLD_WEI()":"e3315637","WATCHED()":"edd0d193","collect()":"e5225381","shouldRespond(bytes[])":"44e6e4ce"},"id":0}