{"abi":[{"type":"function","name":"CLEAR_WEI","inputs":[],"outputs":[{"name":"","type":"uint256","internalType":"uint256"}],"stateMutability":"view"},{"type":"function","name":"REQUIRED_CONSECUTIVE","inputs":[],"outputs":[{"name":"","type":"uint256","internalType":"uint256"}],"stateMutability":"view"},{"type":"function","name":"TRIGGER_WEI","inputs":[],"outputs":[{"name":"","type":"uint256","internalType":"uint256"}],"stateMutability":"view"},{"type":"function","name":"WATCHED","inputs":[],"outputs":[{"name":"","type":"address","internalType":"address"}],"stateMutability":"view"},{"type":"function","name":"collect","inputs":[],"outputs":[{"name":"","type":"bytes","internalType":"bytes"}],"stateMutability":"view"},{"type":"function","name":"shouldRespond","inputs":[{"name":"data","type":"bytes[]","internalType":"bytes[]"}],"outputs":[{"name":"","type":"bool","internalType":"bool"},{"name":"","type":"bytes","internalType":"bytes"}],"stateMutability":"pure"}],"bytecode":{"object":"0x6080604052348015600e575f5ffd5b506106ec8061001c5f395ff3fe608060405234801561000f575f5ffd5b5060043610610060575f3560e01c8063310e98e71461006457806344e6e4ce146100825780636cc61442146100b3578063bc7b6419146100d1578063e5225381146100ef578063edd0d1931461010d575b5f5ffd5b61006c61012b565b6040516100799190610355565b60405180910390f35b61009c600480360381019061009791906103d7565b610130565b6040516100aa9291906104ac565b60405180910390f35b6100bb6102b6565b6040516100c89190610355565b60405180910390f35b6100d96102c2565b6040516100e69190610355565b60405180910390f35b6100f76102ce565b60405161010491906104da565b60405180910390f35b610115610325565b6040516101229190610539565b60405180910390f35b600381565b5f60605f8484905003610156575f60405180602001604052805f815250915091506102af565b5f84845f81811061016a57610169610552565b5b905060200281019061017c919061058b565b8101906101899190610617565b9050670713e24c437300008111156101b5575f60405180602001604052805f81525092509250506102af565b6706ccd46763f10000811015610299575f600190505f600190505b86869050811080156101e25750600382105b15610259575f8787838181106101fb576101fa610552565b5b905060200281019061020d919061058b565b81019061021a9190610617565b90506706ccd46763f1000081101561023f5782806102379061066f565b935050610245565b50610259565b5080806102519061066f565b9150506101d0565b506003811061027e57600160405180602001604052805f8152509350935050506102af565b5f60405180602001604052805f8152509350935050506102af565b5f60405180602001604052805f81525092509250505b9250929050565b670713e24c4373000081565b6706ccd46763f1000081565b60605f73e52ca26d0db661791158549068483c379b20974073ffffffffffffffffffffffffffffffffffffffff16319050806040516020016103109190610355565b60405160208183030381529060405291505090565b73e52ca26d0db661791158549068483c379b20974081565b5f819050919050565b61034f8161033d565b82525050565b5f6020820190506103685f830184610346565b92915050565b5f5ffd5b5f5ffd5b5f5ffd5b5f5ffd5b5f5ffd5b5f5f83601f84011261039757610396610376565b5b8235905067ffffffffffffffff8111156103b4576103b361037a565b5b6020830191508360208202830111156103d0576103cf61037e565b5b9250929050565b5f5f602083850312156103ed576103ec61036e565b5b5f83013567ffffffffffffffff81111561040a57610409610372565b5b61041685828601610382565b92509250509250929050565b5f8115159050919050565b61043681610422565b82525050565b5f81519050919050565b5f82825260208201905092915050565b8281835e5f83830152505050565b5f601f19601f8301169050919050565b5f61047e8261043c565b6104888185610446565b9350610498818560208601610456565b6104a181610464565b840191505092915050565b5f6040820190506104bf5f83018561042d565b81810360208301526104d18184610474565b90509392505050565b5f6020820190508181035f8301526104f28184610474565b905092915050565b5f73ffffffffffffffffffffffffffffffffffffffff82169050919050565b5f610523826104fa565b9050919050565b61053381610519565b82525050565b5f60208201905061054c5f83018461052a565b92915050565b7f4e487b71000000000000000000000000000000000000000000000000000000005f52603260045260245ffd5b5f5ffd5b5f5ffd5b5f5ffd5b5f5f833560016020038436030381126105a7576105a661057f565b5b80840192508235915067ffffffffffffffff8211156105c9576105c8610583565b5b6020830192506001820236038313156105e5576105e4610587565b5b509250929050565b6105f68161033d565b8114610600575f5ffd5b50565b5f81359050610611816105ed565b92915050565b5f6020828403121561062c5761062b61036e565b5b5f61063984828501610603565b91505092915050565b7f4e487b71000000000000000000000000000000000000000000000000000000005f52601160045260245ffd5b5f6106798261033d565b91507fffffffffffffffffffffffffffffffffffffffffffffffffffffffffffffffff82036106ab576106aa610642565b5b60018201905091905056fea26469706673582212201ec2ce630aaa3840ecc5025fe2f71cf9343c70df0639ff9823e996690aada3a464736f6c634300081e0033","linkReferences":{}},"methodIdentifiers":{"CLEAR_WEI()":"6cc61442","REQUIRED_CONSECUTIVE()":"310e98e7","TRIGGER_WEI()":"bc7b6419","WATCHED()":"edd0d193","collect()":"e5225381","shouldRespond(bytes[])":"44e6e4ce"},"id":0}